:100000000C946D030C9495030C9495030C94950338
:100010000C9495030C9495030C9495030C94950300
:100020000C9495030C9495030C9495030C949503F0
:100030000C9495030C9495030C9495030C949503E0
:100040000C94C4160C9495030C94B5150C94E715F8
:100050000C9495030C9495030C9495030C949503C0
:100060000C947C120C9495031F1C1F1E1F1E1F1F37
:100070001E1F1E1F0000000000000000F800007C92
:10008000000000000000000000F800007C000000FC
:10009000000000000000F800007C00DFE303FF87A1
:1000A000FF813FF8F83F7C1FFFFFC3FF8FFFE3FF97
:1000B000F8FE7FFC7FFFFF07009FFFF3F1F900F8D8
:1000C000FC7F9FCF07FF9FCFFBE0FBF8FFFCFC9F6F
:1000D000CF87FF9FCFFBFFFBFCFF7CF89FCFC707BD
:1000E0009F0FF8FFFB3EF87CF89FCFC7879F0FF864
:1000F00000F83EFCFCFC9FCFC7FF9F0FF0F1FBFE1A
:10010000FFFC7F9FCF87FF9F0FE0FFF9FCFFFC7F85
:100110009FCF073F9F0F807FF8F8F97C1F000000FA
:1001200000000000000000000000000000000000CF
:10013000000000000000000000000000E0FBBEEF37
:10014000FBA2EFFB0000000000208A822888A22882
:1001500008000000000020FA8EE88BA22F38000073
:10016000000000200A82088AA22408000000000083
:10017000E00BBEE8FBBEE8FB00000000003E5B4F6A
:100180005B3E3E6B4F6B3E1C3E7C3E1C183C7E3CF7
:10019000181C577D571C1C5E7F5E1C00183C180005
:1001A000FFE7C3E7FF0018241800FFE7DBE7FF3095
:1001B000483A060E2629792926407F050507407F03
:1001C00005253F5A3CE73C5A7F3E1C1C08081C1C76
:1001D0003E7F14227F22145F5F005F5F06097F016C
:1001E0007F006689956A606060606094A2FFA29457
:1001F00008047E040810207E201008082A1C080825
:100200001C2A08081E101010100C1E0C1E0C303872
:100210003E3830060E3E0E06000000000000005F73
:1002200000000007000700147F147F14242A7F2A8F
:100230001223130864623649562050000807030051
:10024000001C2241000041221C002A1C7F1C2A089D
:10025000083E080800807030000808080808000000
:1002600060600020100804023E5149453E00427F74
:10027000400072494949462141494D331814127FC3
:100280001027454545393C4A494931412111090763
:100290003649494936464949291E000014000000E4
:1002A00040340000000814224114141414140041B6
:1002B00022140802015909063E415D594E7C121173
:1002C000127C7F494949363E414141227F414141AB
:1002D0003E7F494949417F090909013E4141517326
:1002E0007F0808087F00417F41002040413F017F97
:1002F000081422417F404040407F021C027F7F045F
:1003000008107F3E4141413E7F090909063E4151A7
:10031000215E7F09192946264949493203017F0197
:10032000033F4040403F1F2040201F3F4038403F98
:10033000631408146303047804036159494D4300AE
:100340007F4141410204081020004141417F0402E5
:10035000010204404040404000030708002054547C
:1003600078407F284444383844444428384444285A
:100370007F385454541800087E090218A4A49C78AD
:100380007F0804047800447D40002040403D007F09
:100390001028440000417F40007C047804787C08E9
:1003A0000404783844444438FC18242418182424BD
:1003B00018FC7C08040408485454542404043F44A2
:1003C000243C4040207C1C2040201C3C4030403CD1
:1003D00044281028444C9090907C4464544C440031
:1003E0000836410000007700000041360800020195
:1003F0000204023C2623263C1EA1A161123A404081
:10040000207A3854545559215555794122545478FD
:1004100042215554784020545579400C1E52721296
:10042000395555555939545454593955545458001F
:1004300000457C410002457D420001457C407D1223
:1004400011127DF0282528F07C5455450020545485
:100450007C547C0A097F4932494949323A44444430
:100460003A324A4848303A4141217A3A424020786B
:10047000009DA0A07D3D4242423D3D4040403D3C6C
:1004800024FF2424487E4943662B2FFC2F2BFF0991
:1004900029F620C0887E0903205454794100004485
:1004A0007D413048484A32384040227A007A0A0A70
:1004B000727D0D19317D2629292F282629292926E3
:1004C00030484D4020380808080808080808382F28
:1004D00010C8ACBA2F102834FA00007B00000814B2
:1004E0002A142222142A14085500550055AA55AA88
:1004F00055AAFF55FF55FF000000FF00101010FF28
:1005000000141414FF001010FF00FF1010F010F082
:10051000141414FC001414F700FF0000FF00FF1473
:1005200014F404FC141417101F10101F101F1414BF
:10053000141F00101010F0000000001F1010101009
:100540001F10101010F010000000FF1010101010FD
:1005500010101010FF10000000FF140000FF00FF3B
:1005600000001F10170000FC04F4141417101714D7
:1005700014F404F40000FF00F714141414141414F9
:10058000F700F7141414171410101F101F1414146C
:10059000F4141010F010F000001F101F0000001FD6
:1005A00014000000FC140000F010F01010FF10FF09
:1005B000141414FF141010101F00000000F010FF9E
:1005C000FFFFFFFFF0F0F0F0F0FFFFFF0000000082
:1005D00000FFFF0F0F0F0F0F3844443844FC4A4A06
:1005E0004A347E02020606027E027E0263554941BB
:1005F000633844443C04407E201E2006027E0202F2
:1006000099A5E7A5991C2A492A1C4C7201724C3005
:100610004A4D4D303048784830BC625A463D3E49DC
:100620004949007E0101017E2A2A2A2A2A44445F80
:10063000444440514A444040444A51400000FF0174
:1006400003E080FF000008086B6B08361236243682
:10065000060F090F060000181800000010100030E7
:1006600040FF0101001F01011E00191D1712003C6F
:100670003C3C3C00000000000000000800020100BB
:10068000000304070000000000000000010204084D
:1006900010204080010204081020010204081020EC
:1006A0000404040404040404020202020202030318
:1006B00003030303000000002300260029000000BC
:1006C0000000250028002B00000000002400270067
:1006D0002A005C076C1417166D0711241FBECFEF9C
:1006E000D8E0DEBFCDBF15E0A0E0B1E0E6E5F4E381
:1006F00002C005900D92A039B107D9F727E0A0E913
:10070000B5E001C01D92AB3DB207E1F716E0C8EDC0
:10071000D6E004C02297FE010E94A318C23DD10773
:10072000C9F70E94B1160C941E1A0C9400002AE11D
:1007300035E0FC013183208308952AE135E0FC0196
:10074000318320830C94C216CF92DF92EF92FF92F6
:10075000CF93DF93EC01405853446D467843ECE36C
:10076000CE2ED12CE12CF12CCB01BA01A7019601A0
:100770000E9460186D83CA01B901A70196010E9409
:1007800060186C83CA01B90128E130E040E050E014
:100790000E9460186B83188243E95EEFE8818E2F18
:1007A0008370A1E009F0A0E08A2F90E0BC016359BA
:1007B0007E4F2617370740F0BA01681B790B260FCA
:1007C000371FEF5FE883EACF81E089838981E82FD3
:1007D000F0E0E959FF4FE491AA2319F0823009F4BF
:1007E000EF5FF0E02E173F0720F02E1B3F0B8F5FCF
:1007F000ECCF2F5F2A83DF91CF91FF90EF90DF90B6
:10080000CF900895EF92FF920F931F93DC01ED912B
:10081000FC910680F781E02DEE24E394F12C0995FC
:100820001F910F91FF90EF900895EF92FF920F9319
:100830001F93CF93DF93F82EE62E8A01CFE9D5E000
:1008400061E08A819B810E94250D61E070E08A81D0
:100850009B810E942B0D4E2D50E06F2D70E08A8100
:100860009B810E941F0DB8018A819B81DF91CF91EE
:100870001F910F91FF90EF900C949C166F927F92B6
:100880008F929F92AF92BF92CF92DF92EF92FF92A0
:100890000F931F93CF93DF9307E110E024E130E043
:1008A0004FE350E064E170E08091A1059091A205D2
:1008B0000E9402040FE310E02FE730E04FE350E026
:1008C00062E170E08091A1059091A2050E9402046E
:1008D00043E255E068E380E00E9415040BE210E07B
:1008E0002FE730E04BE250E062E170E08091A1053B
:1008F0009091A2050E9402044EE155E068E280E07A
:100900000E94150407E110E02FE730E047E150E0D6
:1009100062E170E08091A1059091A2050E9402041D
:1009200041E255E064E180E00E9415040FE310E02D
:100930002FE730E04FE350E064E170E08091A105E3
:100940009091A2050E94020407E110E02FE730E039
:100950004FE350E06FE770E08091A1059091A20510
:100960000E9402047FEAC72E75E0D72ECAE1D0E0CC
:10097000E9E16E2E712CFFE38F2E912CD6018D9123
:100980009D916D01A090A105B090A205D501ED91BA
:10099000FC91B3010E943818A401461B510906843A
:1009A000F785E02DEE24E394F12C0FE310E024E032
:1009B00030E0BE01C50109952696CA37D105F1F68A
:1009C000DF91CF911F910F91FF90EF90DF90CF902B
:1009D000BF90AF909F908F907F906F900895CF932E
:1009E000DF9300D000D0CDB7DEB745E255E065E03B
:1009F00083E20E9415048091A3054AE0BE016F5F67
:100A00007F4F90E00E94D319AE014F5F5F4F65E0CA
:100A100083E30E94150449E255E065E080E00E940E
:100A200015044AE0BE016F5F7F4F8091CF05909122
:100A3000D0050E94D319AE014F5F5F4F65E08BE098
:100A40000E9415044CE255E065E088E10E9415041F
:100A50000E943E048091A1059091A2050E944F1131
:100A60000F900F900F900F90DF91CF910895CF923C
:100A7000DF92EF92FF920F931F93CF93DF93CFE913
:100A8000D5E0CC24C394D12CB4E1EB2EF12C08E6B4
:100A900010E024E730E044E150E06AE070E08A8151
:100AA0009B810E94560B8A819B81DF91CF911F9180
:100AB0000F91FF90EF90DF90CF900C944F118091A9
:100AC000A1059091A2050E947C1080919E0588232B
:100AD00019F0813019F008950C9437050C94EF0447
:100AE000EF92FF920F931F93CF93DF937C018B01C3
:100AF000C0E0D0E0CE018E0D9F1D0E94F819F801D4
:100B000081938F012196CC30D105A1F78CE090E044
:100B1000DF91CF911F910F91FF90EF900895EF9289
:100B2000FF920F931F93CF93DF93CDB7DEB72C9730
:100B30000FB6F894DEBF0FBECDBF8CE190E00E94EF
:100B4000C0168C016FEF0E9466108FE9E82E85E0D9
:100B5000F82EF7011383028321E04CE362E0C80121
:100B60000E94A210F701828193810E944F1168ECCC
:100B700070E080E090E00E9431170E945F0560ED18
:100B800077E080E090E00E94311781E080939E053D
:100B900087E08093A30581E090E09093AA0580937D
:100BA000A90582E090E09093AC058093AB058EE1BF
:100BB00090E09093AE058093AD0584E690E090932D
:100BC000B0058093AF0588EC90E09093B2058093D8
:100BD000B1058CE291E09093B4058093B30580E970
:100BE00091E09093B6058093B50524EF31E0309302
:100BF000B8052093B70548E552E05093BA054093F5
:100C0000B9056CEB72E07093BC056093BB05E0E244
:100C1000F3E0F093BE05E093BD05A4E8B3E0B09324
:100C2000C005A093BF0508EE13E01093C205009322
:100C3000C105B093C405A093C305F093C605E09326
:100C4000C5057093C8056093C7055093CA054093C6
:100C5000C9053093CC052093CB059093CE058093A6
:100C6000CD0580E390E09093D0058093CF0510925E
:100C7000D2051092D1051092D4051092D30510928E
:100C8000D6051092D505BE016F5F7F4F80E090E0E2
:100C90000E94700589819A819093D8058093D70529
:100CA0008B819C819093DA058093D9058D819E81FB
:100CB0009093DC058093DB058F8198859093DE050A
:100CC0008093DD0589859A859093E0058093DF0503
:100CD0008B859C859093E2058093E1051092E40555
:100CE0001092E30561E084E00E94C817E12C0EE158
:100CF00010E024E04091A30560E072EC81E090E018
:100D00000E94780761E08DE00E94C8172C960FB60C
:100D1000F894DEBF0FBECDBFDF91CF911F910F9131
:100D2000FF90EF900895CF92DF92EF92FF920F9392
:100D30001F93CF93DF93CDB7DEB72C970FB6F89400
:100D4000DEBF0FBECDBF89EA95E00E947808809192
:100D5000D5059091D6058130910509F498C082306F
:100D60009105C1F44091D1055091D20560E070E049
:100D7000BA01552744278091D3059091D405A0E06E
:100D8000B0E0482B592B6A2B7B2BCE0101960E9499
:100D9000A4037DC08A30910509F043C08091D70536
:100DA0009091D8059A8389838091D9059091DA052D
:100DB0009C838B838091DB059091DC059E838D83E2
:100DC0008091DD059091DE0598878F838091DF0506
:100DD0009091E0059A8789878091E1059091E205DD
:100DE0009C878B878091E3059091E4052CE0289FF8
:100DF0007001299FF00C11246E014DE0C40ED11C2E
:100E00008E010F5F1F4FE01AF10AC701800F911F7B
:100E1000F80161918F010E94001A0C151D05A9F7B8
:100E200036C00B97A1F58091E3059091E405BE01D2
:100E30006F5F7F4F2CE0AC01249FC001259F900D78
:100E400011240E94700589819A819093D80580931E
:100E5000D7058B819C819093DA058093D9058D818C
:100E60009E819093DC058093DB058F81988590931C
:100E7000DE058093DD0589859A859093E005809352
:100E8000DF058B859C859093E2058093E1051092A8
:100E9000D6051092D5050E945F052C960FB6F894E2
:100EA000DEBF0FBECDBFDF91CF911F910F91FF909D
:100EB000EF90DF90CF90089568E370E084EA95E0CA
:100EC0000E9471078AE195E09093A00580939F05A9
:100ED0006AE080E995E00C94BF118FE995E00C94ED
:100EE0009703FC01718360838FED96E00C944014AE
:100EF0008F929F92AF92BF92EF920F931F93CF93D7
:100F00004B015C01C22F4093ED0526E0AB01BC0113
:100F100081E397E00E945315C23058F0C093EB056F
:100F200061E08C2F0E94C81760E08091EB050E9461
:100F3000011880E4881682E498068FE0A806B104C0
:100F400059F4EE2031F181E090E09093E805809330
:100F5000E7058AE090E011C0811482EC980681E0F8
:100F6000A806B1047CF0EE20A1F08BE490E0909311
:100F7000E8058093E7058FEA90E09093E60580937B
:100F8000E50528C081E088168BE49806A104B10429
:100F90004CF08EEE92E09093E8058093E70586EDA5
:100FA00096E0EBCF60EC71EE84EE90E0A501940149
:100FB0000E9482183093E8052093E70560EC7EE0FC
:100FC00086E192E0A50194010E9482183093E60523
:100FD0002093E5051093F0050093EF051092EA05C4
:100FE0001092E905CF911F910F91EF90BF90AF90B4
:100FF0009F908F90089541EF55E0FA012FEF3FEF5A
:101000009E2F941B981788F49191292798E0B90195
:101010006170772736952795672B21F061E02627A9
:1010200060EA3627915099F7EBCF922F832F0895DE
:10103000FF920F931F93CF93DF93F82E8091EB05D0
:10104000823018F061E00E9401188091E7059091CC
:10105000E8050E94591701EF15E0E8018C2F801B6D
:101060008F1530F4699181E397E00E94EE14F6CF7A
:1010700081E397E00E94CC148091E5059091E6050C
:101080000E9459178091EB05823040F060E0DF91BB
:10109000CF911F910F91FF900C940118DF91CF9188
:1010A0001F910F91FF9008952091E9053091EA0575
:1010B0002F5F3F4F3093EA052093E9059091EE05AD
:1010C000911115C09091ED059093F1059091EC056B
:1010D00090689093F2058093F30583E00E94FB07EC
:1010E0009093F4058093F50585E00C941808089515
:1010F000EF92FF920F931F93CF93DF93EC0110E0D9
:10110000F12C81E397E00E947014892BE1F0112308
:1011100029F081E397E00E9489140EC011E080E875
:10112000F81210E081E397E00E948914EF2DF0E0BF
:10113000EF50FA4F8083F3948091E7059091E80592
:101140000E945917DECF112361F02091E9053091FB
:10115000EA05C90101969093EA058093E905C90162
:10116000F8C086E08F1508F0E3C08091F105882370
:1011700019F01092EE0503C091E09093EE05E09017
:10118000ED058E1529F08091EE05882309F4DDC068
:101190000F2D10E08EEF8F0D0E94FB07A8014F501E
:1011A0005A4FFA013297208130E0322F22273196B0
:1011B0004081242B8217930709F0BEC08091F2056D
:1011C0008093EC052091F30530E0322F2227909197
:1011D000F405292B4091F50550E0542F44279091B8
:1011E000F605492BBA01620F731FF090EE05F1105E
:1011F00043C0833009F040C08091EF059091F00525
:101200002817390708F04DC08617970798F1842FE3
:10121000880F15E0180FE092F1058093F305A0E028
:10122000B0E093E0E22FEA0FF0E01196E617F7073F
:1012300098F4EE0FFF1FEC0FFD1F30814181E92F65
:10124000F0E0EF50FA4F4083E1E0E90FF0E0EF50BB
:10125000FA4F30839E5FE6CF8D5F0E94FB07212F00
:1012600030E02F503A4FF9013297908331968083C6
:10127000812F57C083E059C08630A9F0803109F032
:1012800053C08091F70590E009501109801791072C
:1012900009F052C08091EF059091F00528173907A9
:1012A000C0F082E042C08091EF059091F0052817D0
:1012B0003907B8F7F901EE0FFF1FEC0FFD1F51833F
:1012C000408386E00E94FB079093F7058093F80522
:1012D00027C08617970770F240E050E0E42FEE0F2A
:1012E000E95FA22FA40FB0E04F5F5F4FA617B707CB
:1012F00070F4F0E0AA0FBB1FAC0FBD1FEF50FA4F08
:101300008181308190E0932B8D939C93E7CF86E091
:101310000E94FB079093F7058093F805F11015C024
:1013200088E00E94180811C081E00E9454080DC096
:101330008FEF8F0D873048F48091E9059091EA0591
:1013400001969093EA058093E9058091E9059091D3
:10135000EA05DF91CF911F910F91FF90EF900895D3
:101360002F923F924F925F926F927F928F929F92B5
:10137000AF92BF92CF92DF92EF92FF920F931F93A3
:10138000CF93DF9300D000D0CDB7DEB74C017C8384
:101390006B836A015901C8018701AC014C195D09D1
:1013A00057FF03C051954195510995016B817C818F
:1013B000261B370B37FF03C03195219531092224B5
:1013C0002394312C2417350714F0212C312C2114AF
:1013D000310459F03A2D2B2D5C01832F922F3B8144
:1013E0002C81DC82CB82C32ED22EAB81BC81AA168B
:1013F000BB065CF43C2D2D2D6C01832F922F3B817D
:101400002C81BC82AB82A32EB22E2501EB81FC8104
:101410004E1A5F0A3C016C187D0877FE03C0719478
:1014200061947108720157FE03C0FFEFEF1AFF0AC3
:10143000F594E794C816D9062CF421E030E03A83FD
:10144000298324C06FEF7FEF7A8369831FC0D401A3
:10145000ED91FC910480F581E02D98012114310477
:10146000D9F04B815C81B601C4010995E618F708F3
:10147000F7FE06C0E981FA81CE0EDF1EE40CF51CF2
:101480002B813C812F5F3F4F3C832B836B817C8181
:10149000A616B706E4F604C0A6016B817C81E4CFF2
:1014A0000F900F900F900F90DF91CF911F910F91A0
:1014B000FF90EF90DF90CF90BF90AF909F908F9074
:1014C0007F906F905F904F903F902F9008956F9214
:1014D0007F928F929F92AF92BF92CF92DF92EF92C4
:1014E000FF920F931F93CF93DF93EC015B016A018F
:1014F00039014801E881F9810284F385E02D8701F3
:101500000995E881F981A601480D591D41505109FD
:101510000284F385E02D9301B501CE010995E881A0
:10152000F9810084F185E02D9401A601B501CE0179
:101530000995E881F981B501660D771D6150710942
:101540000084F185E02D9401A601CE010995DF917B
:10155000CF911F910F91FF90EF90DF90CF90BF90B0
:10156000AF909F908F907F906F900895EF92FF9231
:101570000F931F93DC01ED91FC91240F351F215037
:1015800031090680F781E02D780189019B010995D9
:101590001F910F91FF90EF900895EF92FF920F939C
:1015A0001F93DC01ED91FC91260F371F215031096B
:1015B0000680F781E02D78018A0109951F910F912E
:1015C000FF90EF9008956F927F928F929F92AF92CB
:1015D000BF92CF92DF92EF92FF920F931F93CF9320
:1015E000DF935C014A0169013801EB01C60ED71E89
:1015F000CC15DD0574F4D501ED91FC910084F185E5
:10160000E02D87019301A401BE01C5010995219632
:10161000EFCFDF91CF911F910F91FF90EF90DF906F
:10162000CF90BF90AF909F908F907F906F900895D4
:10163000EF92FF920F931F93DC01ED91FC911197B4
:101640001A960D911C911B9718962D913C91199704
:101650000684F785E02D7B0140E050E060E070E01B
:1016600009951F910F91FF90EF9008950895FC0147
:101670001382128282E395E0918380837583648371
:10168000578346837187608753874287158A1586FB
:1016900014861786168621E0248B8FEF9FEF938B9D
:1016A000828B918B808B268B178A08952F923F9285
:1016B0004F925F926F927F928F929F92AF92BF9262
:1016C000CF92DF92EF92FF920F931F93CF93DF930E
:1016D000CDB7DEB728970FB6F894DEBF0FBECDBFEB
:1016E0005C011B015C834B8329013701C80107960C
:1016F00097FD07969C0143E0359527954A95E1F7BC
:101700003A832983812C912CE12CF12CE614F704E7
:101710000CF046C018861F82AB81BC81AE0DBF1D88
:10172000BE83AD832F813885201731078CF5EF817B
:10173000F885F7FD379623E0F595E7952A95E1F7CB
:10174000E80DF91DE40DF51DE491F0E08F81988519
:1017500068E070E00E944C1802C0F595E7958A9504
:10176000E2F7E0FF0FC0D501ED91FC910480F58117
:10177000E02D96014D815E816F817885620D731D2C
:10178000C5010995EF81F8853196F887EF83CACFB7
:101790003FEFE31AF30A89819A81880E991EB6CF2A
:1017A00028960FB6F894DEBF0FBECDBFDF91CF9164
:1017B0001F910F91FF90EF90DF90CF90BF90AF906F
:1017C0009F908F907F906F905F904F903F902F9061
:1017D00008952F923F924F925F926F927F928F92D5
:1017E0009F92AF92BF92CF92DF92EF92FF920F93B0
:1017F0001F93CF93DF93CDB7DEB72C970FB6F89436
:10180000DEBF0FBECDBF9C878B873A0118870F8341
:10181000FA86E986CD82DC0118968D919C91199704
:10182000681779070CF09EC01A968D919C911B97B2
:10183000481759070CF096C08C2C912CCB01B6E0C0
:10184000CB9E800D911D1124181619060CF08AC02C
:10185000C401E3E0880F991FEA95E1F7840F951F13
:10186000181619060CF07EC0AB85BC8557968C9176
:10187000811103C0203B08F02F5F5B016B011C82CC
:1018800058E7452E51E0552E461A570AB5E02B9FD2
:10189000400C511C1124EC81E53031F0F201EA0DCD
:1018A000FB1D24912B8301C01B827A826982130164
:1018B0001E823B8130FF13C0AB85BC85ED91FC914E
:1018C000BD81B13031F40480F581E02D2F81388560
:1018D00019C00684F785E02DEF80F8841EC0E985E5
:1018E000FA852F813885E217F307F9F0AB85BC85BF
:1018F000ED91FC91BD81B13059F40480F581E02D6A
:1019000029853A85A101B5018B859C8509950DC076
:101910000684F785E02DE984FA84840194014981E5
:101920005A81B6018B859C850995EB81E695EB8301
:10193000FE81FF5FFE8329813A81280D391D3A839C
:1019400029833FEF231A330AF83009F0B2CF4C81D4
:101950004F5F4C83C80CD91C8FEFA81AB80A4630C9
:1019600009F099CF2C960FB6F894DEBF0FBECDBF0D
:10197000DF91CF911F910F91FF90EF90DF90CF906B
:10198000BF90AF909F908F907F906F905F904F909F
:101990003F902F900895CF92EF92FF920F931F9355
:1019A000CF93DF93EC01262F6A3049F42C898E8582
:1019B0009F8538E0239F800D911D112432C06D302A
:1019C000A1F1EA88FB88088919894E855F856C85B5
:1019D0007D85CC880E94E90B2C89422F50E08C85B4
:1019E0009D8536E0239F800D911D11249D878C8756
:1019F0002E892223D1F06AEF64039001659F300D98
:101A0000112468857985260F371F281739076CF44C
:101A1000F3E0440F551FFA95E1F78E859F85840FFB
:101A2000951F9F878E871D861C8681E090E0DF9141
:101A3000CF911F910F91FF90EF90CF900895FC01EF
:101A400075876487578746870895611101C061E0F3
:101A5000FC01648B0895FC01738B628B718B608B2E
:101A60000895FC0185890895FC018085918508957C
:101A7000FC018285938508950F931F93CF93DF9385
:101A8000EC018D89823061F08330D9F0813009F02A
:101A9000C8C0EC81FD81E41BF50B3197DB0118C058
:101AA0008C819D81DC01A61BB70BBD018E819F81BE
:101AB000FC01E41BF50BAF0141505109621B730B94
:101AC000B0C0AE81BF81A61BB70BA21BB30BFA013E
:101AD000F7FD05C18C819D81E817F9070CF0FFC067
:101AE000B7FF04C02A0F3B1FA0E0B0E08E819F81AA
:101AF000AD01420F531F841795071CF49C012A1B4C
:101B00003B0B121613060CF0EAC0422F8A2F869563
:101B10008695869590E8899FE00DF11D1124EA5E77
:101B2000FE4FA77069F158E05A1B852F90E0EC0139
:101B3000C25FDE4F6881251760F4DC01A21BB1098A
:101B40008FEF90E00A2E02C0959587950A94E2F7F0
:101B500068230130110539F048F00230110551F4C5
:101B60008081862706C08081862B03C06095808196
:101B700086238083451708F4B2C0451BE058FF4F09
:101B80004830A0F102301105A9F4DF01842F9C91A7
:101B900090959C93A058BF4F88508830C0F788EF2D
:101BA000840F869586958695B0E88B9FE00DF11D94
:101BB000112419C081E00130110509F080E0982F4F
:101BC0009195EF01842F9883C058DF4F885088305B
:101BD000D0F788EF840F86958695869590E8899F43
:101BE000E00DF11D1124E058FF4F4770442309F424
:101BF00076C0A42FB0E0AA5FBE4F9C9101301105C2
:101C000041F050F00230110509F069C08081892748
:101C100006C08081892B03C09095808189238083B1
:101C20005EC057FD5CC08E819F81481759070CF03C
:101C300056C077FF04C0260F371F60E070E08C812C
:101C40009D81FB01E20FF31F8E179F071CF49C017F
:101C5000261B370B121613060CF041C0CA0157FDA4
:101C60000796E3E095958795EA95E1F79695982F85
:101C70008827979587958A5E9E4F860F971F477096
:101C8000552761E070E001C0660F4A95EAF7462FDC
:101C90000130110541F088F00230110501F5FC0119
:101CA000280F391F15C0FC01280F391FE217F30751
:101CB000B1F08081842B8193F9CF6095FC01280FCE
:101CC000391FE217F30759F0808186238193F9CFFA
:101CD000E217F30721F0808184278193F9CFDF9108
:101CE000CF911F910F9108950F931F93CF93DF937F
:101CF000FC018589823069F08330E1F0813009F0A0
:101D000082C0C481D581C41BD50BC21BD30BDB01A0
:101D100017C084819581DC01A61BB70BBD01615002
:101D2000710986819781DC01A41BB50BAD01421BB3
:101D3000530B69C0A681B781A61BB70B1197EA01A7
:101D4000B7FD08C186819781A817B9070CF002C1B9
:101D5000D7FF04C02C0F3D1FC0E0D0E084819581E7
:101D6000AE01420F531F841795071CF49C012C1BD6
:101D70003D0B121613060CF0EDC0CD01B7FD079612
:101D800043E0959587954A95E1F79695982F882792
:101D9000979587958A5E9E4F8C0F9D1FA770BB27D6
:101DA00041E050E00A2E01C0440F0A94EAF7642F84
:101DB0000130110549F098F00230110509F0CAC050
:101DC000FC01280F391F17C0FC01280F391FE2172B
:101DD000F30709F4BFC08081862B8193F8CF40952B
:101DE000FC01280F391FE217F30709F4B3C0808103
:101DF00084238193F8CFE217F30709F4ABC0808105
:101E000086278193F8CF77FDA5C0848195816817D7
:101E100079070CF09FC057FF04C0240F351F40E026
:101E200050E086819781FA01E20FF31F8E179F071A
:101E30001CF49C01241B350B121613060CF08AC0EF
:101E4000522F842F869586958695FB01B0E88B9F4F
:101E5000E00DF11D1124EA5EFE4F477069F168E064
:101E6000641B862F90E0EC01C25FDE4F488126178D
:101E700060F4DC01A21BB1098FEF90E00A2E02C0D2
:101E8000959587950A94E2F748230130110539F0BA
:101E900048F00230110551F48081842706C080810A
:101EA000842B03C04095808184238083561708F4D7
:101EB00051C0561BE058FF4F5830A0F102301105B9
:101EC000A9F4DF01852F9C9190959C93A058BF4F5A
:101ED00088508830C0F788EF850F8695869586955F
:101EE000B0E88B9FE00DF11D112419C081E0013095
:101EF000110509F080E0982F9195EF01852F9883C7
:101F0000C058DF4F88508830D0F788EF850F86950E
:101F10008695869590E8899FE00DF11D1124E05883
:101F2000FF4F57705523B1F0A52FB0E0AA5FBE4F09
:101F30009C910130110539F048F00230110551F43F
:101F40008081892706C08081892B03C0909580817C
:101F500089238083DF91CF911F910F910895CF92B4
:101F6000DF92EF92FF920F931F93CF93DF937C0149
:101F70008B01EA01690177FDA0C00E94340D0817AA
:101F800019070CF09AC0D7FD98C0C7010E94380D00
:101F9000C817D9070CF091C0C7010E94310D8230DB
:101FA00009F07FC0F701848195819C01201B310BD2
:101FB00089010150110986819781FC01EC1BFD0B01
:101FC000EF0121970BC0813049F4F701848195819D
:101FD0008C1B9D0BE8018C0101501109F1E0CF161B
:101FE000D10431F010F132E0C316D104E1F165C043
:101FF000FE01D7FD379683E0F595E7958A95E1F7E1
:10200000F695FE2FEE27F795E795E00FF11FEA5EB4
:10201000FE4FC770DD2781E090E00C2E01C0880FD5
:102020000A94EAF79081982B3AC0FE01D7FD3796C3
:10203000A3E0F595E795AA95E1F7F695FE2FEE2733
:10204000F795E795E00FF11FEA5EFE4FC770DD27B9
:1020500081E090E00C2E01C0880F0A94EAF7809589
:10206000908198231CC0FE01D7FD379663E0F5955B
:10207000E7956A95E1F7F695FE2FEE27F795E79538
:10208000E00FF11FEA5EFE4FC770DD2781E090E0B0
:102090000C2E01C0880F0A94EAF79081982790834C
:1020A0000CC0833009F08FCFF70186819781801BA8
:1020B000910B8E01EC01219791CFDF91CF911F9170
:1020C0000F91FF90EF90DF90CF9008951F93CF93E3
:1020D000DF93EC01162F40E450E060E870E00E94CE
:1020E000370B8AE495E0998388838FEF8A8F1B8F63
:1020F000DF91CF911F91089580E094E0E6E1F1E057
:10210000DF019C011D9221503040E1F70895CF93EB
:10211000C62FFC01808D682F772767FD70958FEDA6
:1021200096E00E94541460E08FED96E00E94011446
:102130006C2F8FED96E00E9401148FED96E0CF9109
:102140000C946914EF92FF921F93CF93DF931F9229
:10215000CDB7DEB77C01162FFC01618F408F8FED6C
:1021600096E029830E9440142981222311F1F7016E
:10217000838D87FD1EC061E00E94C81761E0F701F2
:10218000838D0E94011861E070E080E090E00E9481
:10219000311760E0F701838D0E9401186AE070E05A
:1021A00080E090E00E94311761E0F701838D0E948A
:1021B00001186EEAC7010E94871065EDC7010E94F1
:1021C000871060E8C7010E94871068EAC7010E9473
:1021D00087106FE3C7010E94871063EDC7010E945B
:1021E000871060E0C7010E94871060E4C7010E9469
:1021F00087106DE8C7010E948710113011F460E16B
:1022000001C064E1C7010E94871060E2C7010E941B
:10221000871060E0C7010E94871061EAC7010E9431
:10222000871068ECC7010E9487106AEDC7010E9401
:10223000871062E1C7010E94871061E8C7010E9410
:102240008710113011F46FE901C06FECC7010E94D3
:10225000871069EDC7010E948710113011F462E206
:1022600001C061EFC7010E9487106BEDC7010E949A
:10227000871060E4C7010E94871064EAC7010E94CA
:10228000871066EAC7010E9487106FEAC7010F90A6
:10229000DF91CF911F91FF90EF900C948710DF9208
:1022A000EF92FF920F931F93CF93DF93EC0161E2C4
:1022B0000E94871060E0CE010E9487106FE7CE0178
:1022C0000E94871062E2CE010E94871060E0CE017A
:1022D0000E94871067E0CE010E948710D090B8005E
:1022E0008CE08093B80006E111E0688D772767FDE8
:1022F00070958FED96E00E945414E091DF06F09106
:10230000E0060190F081E02D60E48FED96E0099504
:10231000E12CF12CF801EE0DFF1D60818FED96E0B0
:102320000E9401148FEFE81AF80A80E1E816F10420
:1023300089F78FED96E00E946914005F1F4F85E0DA
:102340000631180791F6D092B800DF91CF911F9116
:102350000F91FF90EF90DF900895FC011386158692
:10236000148627E030E0DF01A20FB31F13961C9202
:102370002115310519F021503109F5CF08951F932A
:10238000CF93DF93EC01162F60E0812F0E94C817D6
:10239000612F70E0FB01E457F94FE491E883FB0102
:1023A000E056F94FE491F0E0EE0FFF1FEC54F94FC7
:1023B000859194919A838983CE01DF91CF911F916A
:1023C0000C94AD111092DE0681E08093DC06109231
:1023D000DB0661E082E10E94011861E083E10E9476
:1023E0000118E9EBF0E080818E7F808380818D7F12
:1023F000808388E48093B80085E48093BC000895CE
:102400000F93413208F046C09091DE069111FCCF47
:1024100092E09093DE060093DC069FEF90937106A6
:102420001092B6064093B506FB0167EB76E0DB0140
:102430009A2F961B941718F491919D93F9CF1092AF
:10244000DD069091DD06880F892B8093DD06809153
:10245000DB06813041F41092DB068091DD0680932B
:10246000BB0085EC01C085EE8093BC00222321F0E7
:102470008091DE068230E1F3809171068F3F61F03A
:1024800080917106803251F080917106803341F461
:1024900083E007C081E005C080E003C082E001C0A6
:1024A00084E00F910895613298F42091DE06243083
:1024B00089F460939306FC0185E996E0DC012A2FFC
:1024C000281B261718F421912D93F9CF80E0089549
:1024D00081E0089582E0089585ED8093BC008091AD
:1024E000BC0084FDFCCF1092DE06089585EC80933D
:1024F000BC001092DE0608951F920F920FB60F9245
:1025000011242F933F934F935F936F937F938F93F8
:102510009F93AF93BF93EF93FF938091B900887F10
:10252000803609F49CC068F5883209F45BC090F4E9
:10253000803109F454C038F4882309F4F5C0883098
:1025400009F44DC0F5C0883109F44CC0803209F45B
:102550005DC0EEC0803409F468C048F4803309F4EB
:1025600055C0883309F0E4C080937106A8C0803557
:1025700009F44FC0883509F45DC0883409F0D8C02B
:10258000D5C0883909F4C6C0A8F4883709F467C0F3
:1025900038F4883609F463C0803709F460C0C8C0D5
:1025A000883809F4B7C0803909F45FC0803809F071
:1025B000BFC05BC0803B09F485C038F4803A09F4A1
:1025C00066C0883A09F47EC0B3C0803C09F4A6C056
:1025D000883C09F4A3C0883B09F489C0A9C0809154
:1025E000DD0610C09091B6068091B506981770F57B
:1025F000E091B60681E08E0F8093B606F0E0E954D4
:10260000F94F80818093BB0085EC85C08093710673
:102610008DC0E091B60681E08E0F8093B606809162
:10262000BB00F0E0E954F94F80839091B6068091A9
:10263000B5066DC0E091B60681E08E0F8093B606B8
:102640008091BB00F0E0E954F94F80838091DC0673
:1026500081116CC081E08093DB0684EA60C083E076
:102660008093DE0610927206CFCF80917206803280
:1026700008F050C0E091720681E08E0F80937206E0
:102680008091BB00F0E0ED58F94F8083BDCF809181
:102690007206803230F4E0917206F0E0ED58F94FA6
:1026A00010820E946C126091720670E0E091D70671
:1026B000F091D80683E796E00995109272060E9481
:1026C000761236C084E08093DE0610929406109253
:1026D0009306E091D906F091DA0609958091930668
:1026E000811105C081E08093930610929506E091D8
:1026F000940681E08E0F80939406F0E0EB56F94F3C
:1027000080818093BB0090919406809193069817E6
:1027100008F47ACF85E88093BC000AC085EC8093EA
:10272000BC001092DE0604C0109271060E946C126A
:10273000FF91EF91BF91AF919F918F917F916F9199
:102740005F914F913F912F910F900FBE0F901F906F
:10275000189580910F0790E020911007821B910936
:1027600008952091100780910F07281750F4E22F49
:10277000F0E0EF5EF84F808190E02F5F209310072C
:1027800008958FEF9FEF0895E091100780910F0754
:10279000E81730F4F0E0EF5EF84F808190E00895A4
:1027A0008FEF9FEF08950895CF92DF92EF92FF92FF
:1027B0000F931F93CF93DF937C01CB018A0120916C
:1027C000EB06222389F0EB016B01C40ED51ECC155C
:1027D000DD0569F06991D701ED91FC910190F081DF
:1027E000E02DC7010995F3CF642F0E945312C80151
:1027F000DF91CF911F910F91FF90EF90DF90CF90DD
:102800000895CF93DF931F92CDB7DEB769832091F0
:10281000EB062223D1F02091EC06203240F021E09B
:1028200030E0FC013383228380E090E015C080918A
:10283000ED06E82FF0E0E251F94F998190838F5F28
:102840008093ED068093EC0605C061E0CE01019611
:102850000E94531281E090E00F90DF91CF91089594
:10286000FC011382128248EE53E060E070E0448382
:1028700055836683778382E695E09183808308950C
:102880001092100710920F071092ED061092EC06AE
:102890000C94E21181E08093EB0660930E07109296
:1028A000ED061092EC0608950C944A140F93062F2F
:1028B00021E04091EC066EEE76E080910E070E94DA
:1028C00000121092ED061092EC061092EB060F919A
:1028D000089561E00C9456148FED96E00C9430143A
:1028E000FC01818D228D90E0805C9F4F821B9109BD
:1028F0008F7399270895FC01918D828D981731F07F
:10290000828DE80FF11D858D90E008958FEF9FEF88
:102910000895FC01918D828D981761F0828DDF0101
:10292000A80FB11D5D968C91928D9F5F9F73928FC2
:1029300090E008958FEF9FEF08958DE096E1892B49
:1029400049F080E090E0892B29F00E940D1681115A
:102950000C9400000895FC01848DDF01A80FB11DC7
:10296000A35ABF4F2C91848D90E001968F739927C5
:10297000848FA689B7892C93A089B1898C918064B2
:102980008C93938D848D981306C00288F389E02D73
:1029900080818F7D80830895CF93DF93EC01888DB4
:1029A0008823C9F0EA89FB89808185FD05C0A88953
:1029B000B9898C9186FD0FC00FB607FCF5CF8081D9
:1029C00085FFF2CFA889B9898C9185FFEDCFCE0123
:1029D0000E94AB14E7CFDF91CF910895CF92DF92A1
:1029E000FF920F931F93CF93DF931F92CDB7DEB764
:1029F0006C0181E0D60158968C9358975B969C9118
:102A00005B975C968C915C97981307C05096ED91FC
:102A1000FC915197808185FD2EC0F601038D10E059
:102A20000F5F1F4F0F731127F02EF601848DF812E0
:102A300011C00FB607FCF9CFD6015096ED91FC916D
:102A40005197808185FFF1CFC60169830E94AB1445
:102A50006981EBCF838DE80FF11DE35AFF4F60834F
:102A6000D6015B960C935B975296ED91FC91539730
:102A7000808180620CC0D6015696ED91FC915797EB
:102A800060835096ED91FC915197808180648083A2
:102A900081E090E00F90DF91CF911F910F91FF9017
:102AA000DF90CF900895BF92CF92DF92EF92FF9286
:102AB000CF93DF93EC016A017B01B22EE889F9899B
:102AC00082E08083411581EE580761057105A1F010
:102AD00060E079E08DE390E0A70196010E94601824
:102AE0002150310941095109569547953795279548
:102AF000211580E1380798F0E889F989108260E8AB
:102B000074E88EE190E0A70196010E9460182150C0
:102B10003109410951095695479537952795EC8517
:102B2000FD853083EE85FF852083188EEC89FD8935
:102B3000B082EA89FB89808180618083EA89FB8990
:102B4000808188608083EA89FB89808180688083B6
:102B5000EA89FB8980818F7D8083DF91CF91FF900F
:102B6000EF90DF90CF90BF9008951F920F920FB615
:102B70000F9211242F938F939F93EF93FF93E091E4
:102B80004107F09142078081E0914707F0914807A3
:102B900082FD12C0908180914A078F5F8F732091D0
:102BA0004B07821751F0E0914A07F0E0EF5CF84FD5
:102BB000958F80934A0701C08081FF91EF919F918B
:102BC0008F912F910F900FBE0F901F9018951F920D
:102BD0000F920FB60F9211242F933F934F935F9351
:102BE0006F937F938F939F93AF93BF93EF93FF93D5
:102BF00081E397E00E94AB14FF91EF91BF91AF91F9
:102C00009F918F917F916F915F914F913F912F9104
:102C10000F900FBE0F901F90189581E397E00E94D0
:102C2000701421E0892B09F420E0822F089510927E
:102C300034071092330788EE93E0A0E0B0E0809371
:102C4000350790933607A0933707B093380782E78C
:102C500095E0909332078093310785EC90E0909354
:102C60003E0780933D0784EC90E09093400780936B
:102C70003F0780EC90E0909342078093410781ECFE
:102C800090E0909344078093430782EC90E0909308
:102C900046078093450786EC90E090934807809321
:102CA000470710924A0710924B0710924C07109258
:102CB0004D070895CF92DF92EF92FF920F931F93EB
:102CC000CF93DF936C017A01EB01E60EF71E00E073
:102CD00010E0CE15DF0561F06991D601ED91FC9110
:102CE0000190F081E02DC6010995080F191FF1CF61
:102CF000C801DF91CF911F910F91FF90EF90DF906E
:102D0000CF9008956115710581F0DB010D900020D1
:102D1000E9F7AD0141505109461B570BDC01ED911C
:102D2000FC910280F381E02D099480E090E0089509
:102D30006EE775E00C9482160F931F93CF93DF9389
:102D4000EC010E9482168C01CE010E949816800F21
:102D5000911FDF91CF911F910F9108950E94CE197D
:102D600008950E9464170E94B0160E948F05CDE955
:102D7000D4E10E9493062097E1F30E949D14F9CFBD
:102D80000C94A7180C943F191F920F920FB60F9234
:102D900011242F933F938F939F93AF93BF93809171
:102DA000CF079091D007A091D107B091D207309171
:102DB000CE0723E0230F2D3720F40196A11DB11D6E
:102DC00005C026E8230F0296A11DB11D2093CE0752
:102DD0008093CF079093D007A093D107B093D207E9
:102DE0008091D3079091D407A091D507B091D607D1
:102DF0000196A11DB11D8093D3079093D407A09392
:102E0000D507B093D607BF91AF919F918F913F9116
:102E10002F910F900FBE0F901F9018953FB7F89409
:102E20008091D3079091D407A091D507B091D60790
:102E300026B5A89B05C02F3F19F00196A11DB11D15
:102E40003FBF6627782F892F9A2F620F711D811D32
:102E5000911D42E0660F771F881F991F4A95D1F791
:102E60000895CF92DF92EF92FF92CF93DF936B01A1
:102E70007C010E940E17EB01C114D104E104F1049E
:102E800089F00E9437180E940E176C1B7D0B683E5C
:102E9000734090F381E0C81AD108E108F108C851E5
:102EA000DC4FEACFDF91CF91FF90EF90DF90CF9092
:102EB00008958230910538F0880F991F880F991F67
:102EC00005970197F1F70895789484B5826084BDE1
:102ED00084B5816084BD85B5826085BD85B581601E
:102EE00085BDEEE6F0E0808181608083E1E8F0E07E
:102EF0001082808182608083808181608083E0E8AD
:102F0000F0E0808181608083E1EBF0E0808184608B
:102F10008083E0EBF0E0808181608083EAE7F0E08D
:102F200080818460808380818260808380818160F1
:102F300080838081806880831092C10008958330EF
:102F400081F028F4813099F08230A1F00895873023
:102F5000A9F08830B9F08430D1F4809180008F7D61
:102F600003C0809180008F7780938000089584B59E
:102F70008F7702C084B58F7D84BD08958091B000A5
:102F80008F7703C08091B0008F7D8093B00008954B
:102F9000CF93DF9390E0FC01E457F94F2491FC01BB
:102FA000E056F94F8491882349F190E0880F991FEA
:102FB000FC01E853F94FA591B4918254994FFC015B
:102FC000C591D4919FB7611108C0F8948C91209558
:102FD00082238C93888182230AC0623051F4F89452
:102FE0008C91322F309583238C938881822B888318
:102FF00004C0F8948C91822B8C939FBFDF91CF916A
:1030000008950F931F93CF93DF931F92CDB7DEB731
:10301000282F30E0F901E858F94F8491F901E4577D
:10302000F94F1491F901E056F94F04910023C9F0CA
:10303000882321F069830E949F176981E02FF0E0C7
:10304000EE0FFF1FE254F94FA591B4919FB7F8948A
:103050008C91611103C01095812301C0812B8C9349
:103060009FBF0F90DF91CF911F910F910895089509
:10307000AA1BBB1B51E107C0AA1FBB1FA617B7079E
:1030800010F0A61BB70B881F991F5A95A9F78095BA
:103090009095BC01CD01089597FB072E16F400947E
:1030A00007D077FD09D00E94381807FC05D03EF400
:1030B000909581959F4F0895709561957F4F0895E4
:1030C000A1E21A2EAA1BBB1BFD010DC0AA1FBB1F2C
:1030D000EE1FFF1FA217B307E407F50720F0A21B9E
:1030E000B30BE40BF50B661F771F881F991F1A940B
:1030F00069F760957095809590959B01AC01BD0135
:10310000CF010895052E97FB1EF400940E94991894
:1031100057FD07D00E94601807FC03D04EF40C94B2
:10312000991850954095309521953F4F4F4F5F4FDF
:10313000089590958095709561957F4F8F4F9F4F23
:103140000895EE0FFF1F0590F491E02D0994CF93A1
:10315000DF938230910510F482E090E0E091D9078E
:10316000F091DA0720E030E0A0E0B0E0309739F1EC
:103170004081518148175907B8F04817590771F431
:1031800082819381109729F013969C938E931297C6
:103190002CC09093DA078093D90727C021153105F9
:1031A00031F04217530718F0A901DB0101C0EF010C
:1031B0009A01BD01DF010280F381E02DD7CF2115F7
:1031C0003105F9F0281B390B2430310580F48A8150
:1031D0009B816115710521F0FB019383828304C0FB
:1031E0009093DA078093D907FE01329644C0FE011E
:1031F000E20FF31F81939193225031093983288381
:103200003AC02091D7073091D807232B41F4209161
:103210000201309103013093D8072093D707209102
:103220000001309101012115310541F42DB73EB760
:103230004091040150910501241B350BE091D70703
:10324000F091D807E217F307A0F42E1B3F0B2817C5
:10325000390778F0AC014E5F5F4F2417350748F00F
:103260004E0F5F1F5093D8074093D70781939193D8
:1032700002C0E0E0F0E0CF01DF91CF910895CF935D
:10328000DF93009709F487C0FC0132971382128202
:10329000C091D907D091DA07209781F4208131813C
:1032A000280F391F8091D7079091D807821793076D
:1032B00079F5F093D807E093D7076DC0DE0120E0E1
:1032C00030E0AE17BF0750F412964D915C91139702
:1032D0009D014115510509F1DA01F3CFB383A283B2
:1032E00040815181840F951F8A179B0771F48D913E
:1032F0009C911197840F951F02969183808312965B
:103300008D919C911397938382832115310529F424
:10331000F093DA07E093D9073EC0D9011396FC93E6
:10332000EE9312974D915D91A40FB51FEA17FB071D
:1033300079F480819181840F951F0296D9011196AD
:103340009C938E938281938113969C938E93129774
:10335000E0E0F0E08A819B81009719F0FE01EC012A
:10336000F9CFCE01029628813981820F931F2091D7
:10337000D7073091D8072817390769F4309729F40F
:103380001092DA071092D90702C013821282D093EA
:10339000D807C093D707DF91CF91089581E090E0DF
:1033A000F8940C941E1ABB274A3031F4992322F466
:1033B000BDE2909581959F4F0C94DF19BB27FB01CF
:1033C0005527AA27880F991FAA1FA41710F0A41B1E
:1033D00083955051B9F7A05DAA3308F0A95DA19378
:1033E000009779F7B111B1931192CB010C940E1A99
:1033F000F999FECF92BD81BDF89A992780B50895BD
:10340000262FF999FECF1FBA92BD81BD20BD0FB600
:10341000F894FA9AF99A0FBE01960895DC01FC011E
:10342000672F71917723E1F7329704C07C916D93F8
:1034300070836291AE17BF07C8F3089516E0C8ED18
:10344000D6E004C0FE010E94A3182296CA3DD1070F
:06345000C9F7F894FFCF5C
:103456000000DB078000000103070F1F3F7F00808D
:10346600C0E0F0F8FCFE00000000000000000000D4
:103476000000000000000000000000000000000046
:103486000000000000000000000000000000000036
:103496000000000000000000000000000000000026
:1034A6000000000000808080000000000000000096
:1034B600000000000000008080C0C0000000000086
:1034C60000000000000000000000000000000000F6
:1034D60000000000000000000000000000000000E6
:1034E60000000000000000000000000000000000D6
:1034F6000000000000000000000080C0E0F0F8FCC2
:10350600F8E00000000000000000000000000000DD
:1035160000000080808080800080800000000080A5
:103526008080808000FFFFFF000000008080808098
:1035360000008080000080FFFF8080008080008087
:103546008080800080800000000000808000008C69
:103556008E84000080F8F8F880000000000000006B
:10356600000000000000F0F0F0F0F0F0F0F0F0F0F5
:10357600F0F0E0E0C08000E0FCFEFFFFFF7FFFFF11
:10358600FFFFFF0000000000000000000000000038
:1035960000FEFFC70101010183FFFF00007CFEC79B
:1035A6000101010183FFFFFF0038FEC7830101010E
:1035B60083C7FFFF000001FFFF010100FFFF0701B6
:1035C600010100007FFF80000000FFFF7F0000FF79
:1035D600FFFF000001FFFFFF0100000000000000E8
:1035E600000000000000030F3F7F7FFFFFFFFFFF8B
:1035F600FFFFE7C7C78F8F9FBFFFFFC3C0F0FFFF67
:10360600FFFFFFFCFCFCFCFCFCFCFCF8F8F0F0E027
:10361600C0000103030303030103030000000001CC
:103626000303030301010301000000010303030375
:103636000101030300000003030000000303000070
:103646000000000000010303030303010000000162
:103656000301000000030301000000000000000059
:1036660000000000000000000080C0E0F0F9FFFF4D
:10367600FFFFFF3F1F0F87C7F7FFFF1F1F3DFCF828
:10368600F8F8F87C7DFFFFFFFFFFFFFFFF7F3F0F8E
:1036960007003030000000000000000000000000BD
:1036A60000000000000000000000FEFEFC0000001C
:1036B6000000000000000000000000000000000004
:1036C600000000E0C0000000000000000000000054
:1036D6003030000000000000000000000000000084
:1036E60000000000000000C0FEFFFFFFFFFFFFFF1D
:1036F600FFFF7F7F3F1F0F071F7FFFFFF8F8FFFFCA
:10370600FFFFFFFEF8E000000001000000000000DF
:103716000000FEFE000000FCFEFC0C06060EFCF897
:103726000000F0F81C0E0606060CFFFFFF0000FE68
:10373600FE00000000FCFEFC00183C7E66E6CE841F
:10374600000006FFFF0606FCFEFC0C06060600004F
:10375600FEFE0000C0F8FC4E4646464E7C784018F9
:103766003C76E6CECC8000000000000000000000A1
:103776000000000000000000000001070F1F1F3FAF
:103786003F3F3F1F0F030000000000000000000045
:1037960000000F0F0000000F0F0F000000000F0FBA
:1037A600000003070E0C18180C060F0F0F0000017F
:1037B6000F0E0C180C0F070100040E0C180C0F0747
:1037C6000000000F0F00000F0F0F000000000000A8
:1037D6000F0F00000007070C0C181C0C060600044F
:1037E6000E0C180C0F07000000000000000000007F
:1037F60000000000000000000000000000000000C3
:1038060000000000000000000000000000000000B2
:1038160000000000000000000000000000000000A2
:103826000000000000000000000000000000000092
:103836000000000000000000000000000000000082
:103846000000000000000000000000000000000072
:103856000000000000000000000000000000000062
:103866000000000000000000000097039D033530B3
:10387600003130300049443A00543A004300000019
:103886000000CB0C5A16AE16B009B60ACD0A670A66
:10389600E30A180B360B00000000CB0C5A16AF0FCC
:1038A600B009740E3C0D670AE30A180B360B0000CC
:1038B60000000114D413A913B113C413D3130000C9
:1038C6000000EE145A16701489147B14CC140D0AD9
:1038D600006E616E00696E66006F7666002E0000EF
:00000001FF
